:100000000C9462000C948A000C948A000C948A0070
:100010000C948A000C948A000C948A000C948A0038
:100020000C948A000C948A000C948A000C948A0028
:100030000C948A000C948A000C948A000C948A0018
:100040000C9400030C948A000C94CE020C94A80229
:100050000C948A000C948A000C948A000C948A00F8
:100060000C948A000C948A000000000025002800EF
:100070002B0000000000240027002A0000000000E0
:1000800023002600290004040404040404040202DA
:100090000202020203030303030301020408102007
:1000A0004080010204081020010204081020000012
:1000B0000008000201000003040700000000000027
:1000C0000000960511241FBECFEFD8E0DEBFCDBFE4
:1000D00011E0A0E0B1E0E2E5F0E102C005900D9290
:1000E000A633B107D9F721E0A6E3B1E001C01D9224
:1000F000A43EB207E1F710E0C2E6D0E004C02197C9
:10010000FE010E942108C136D107C9F70E944A03A7
:100110000C9427080C940000AF92BF92CF92DF920C
:10012000EF92FF920F931F93CF93DF936C017B01AC
:100130008B01040F151FEB015E01AE18BF08C0173D
:10014000D10759F06991D601ED91FC910190F081B0
:10015000E02DC6010995892B79F7C501DF91CF9173
:100160001F910F91FF90EF90DF90CF90BF90AF90D5
:100170000895FC01538D448D252F30E0842F90E0AD
:10018000821B930B541710F0CF9608950197089592
:10019000FC01918D828D981761F0A28DAE0FBF2F5B
:1001A000B11D5D968C91928D9F5F9F73928F90E0B1
:1001B00008958FEF9FEF0895FC01918D828D981720
:1001C00031F0828DE80FF11D858D90E008958FEF5D
:1001D0009FEF0895FC01918D228D892F90E0805C26
:1001E0009F4F821B91098F739927089587E491E0AF
:1001F0000E94EA0021E0892B09F420E0822F089573
:1002000080E090E0892B29F00E94F60081110C9487
:1002100000000895FC01A48DA80FB92FB11DA35AA9
:10022000BF4F2C91848D90E001968F739927848F16
:10023000A689B7892C93A089B1898C918370806439
:100240008C93938D848D981306C00288F389E02DDA
:1002500080818F7D80830895EF92FF920F931F938B
:10026000CF93DF93EC0181E0888F9B8D8C8D981369
:100270001AC0E889F989808185FF15C09FB7F89475
:10028000EE89FF896083E889F989808183708064C1
:1002900080839FBF81E090E0DF91CF911F910F910C
:1002A000FF90EF900895F62E0B8D10E00F5F1F4F1B
:1002B0000F731127E02E8C8D8E110CC00FB607FC2A
:1002C000FACFE889F989808185FFF5CFCE010E94B8
:1002D0000A01F1CFEB8DEC0FFD2FF11DE35AFF4F1B
:1002E000F0829FB7F8940B8FEA89FB898081806246
:1002F000CFCFCF93DF93EC01888D8823B9F0AA8903
:10030000BB89E889F9898C9185FD03C0808186FDD0
:100310000DC00FB607FCF7CF8C9185FFF2CF80811F
:1003200085FFEDCFCE010E940A01E9CFDF91CF9189
:100330000895833081F028F4813099F08230A9F05B
:1003400008958730A9F08830C9F08430B1F48091E5
:1003500080008F7D03C0809180008F778093800024
:10036000089584B58F7784BD089584B58F7DFBCFC4
:100370008091B0008F778093B00008958091B00095
:100380008F7DF9CF1F93CF93DF93282F30E0F901B2
:10039000E255FF4F8491F901E656FF4FD491F901E0
:1003A000EA57FF4FC491CC23A9F0162F81110E9468
:1003B0009901EC2FF0E0EE0FFF1FE859FF4FA591D8
:1003C000B4918FB7F894EC91111108C0D095DE2349
:1003D000DC938FBFDF91CF911F910895DE2BF8CF73
:1003E0003FB7F89480913B0190913C01A0913D0171
:1003F000B0913E0126B5A89B05C02F3F19F001968C
:10040000A11DB11D3FBFBA2FA92F982F8827BC016E
:10041000CD01620F711D811D911D42E0660F771F96
:10042000881F991F4A95D1F708958F929F92AF9296
:10043000BF92CF92DF92EF92FF920E94F0014B01A8
:100440005C0180EDC82E87E0D82EE12CF12C0E94B3
:10045000F001681979098A099B09683E7340810592
:100460009105A8F321E0C21AD108E108F10888EE4D
:10047000880E83E0981EA11CB11CC114D104E104B4
:10048000F10429F7FF90EF90DF90CF90BF90AF90ED
:100490009F908F9008952FB7F894609137017091D5
:1004A00038018091390190913A012FBF0895FC01E4
:1004B00001900020E9F73197AF01481B590BBC01AF
:1004C00087E491E00C948C008F929F92AF92BF9240
:1004D0000F931F93CF93DF93CDB7DEB7A1970FB6DE
:1004E000F894DEBF0FBECDBF19A2423008F44AE037
:1004F0008E010F5D1F4F842E912CB12CA12CA501D4
:1005000094010E94FF07E62FB901CA01EA30F4F412
:10051000E05DD801EE938D01232B242B252B79F759
:1005200090E080E0109719F0CD010E945702A1964B
:100530000FB6F894DEBF0FBECDBFDF91CF911F91F4
:100540000F91BF90AF909F908F900895E95CE1CF9D
:100550001F920F920FB60F9211242F933F934F9338
:100560005F936F937F938F939F93AF93BF93EF931B
:10057000FF9387E491E00E940A01FF91EF91BF9100
:10058000AF919F918F917F916F915F914F913F912B
:100590002F910F900FBE0F901F9018951F920F92E2
:1005A0000FB60F9211242F938F939F93EF93FF9386
:1005B000E0915701F09158018081E0915D01F09147
:1005C0005E0182FD1BC09081809160018F5F8F73FF
:1005D00020916101821741F0E0916001F0E0E95B58
:1005E000FE4F958F80936001FF91EF919F918F91C6
:1005F0002F910F900FBE0F901F9018958081F4CF10
:100600001F920F920FB60F9211242F933F938F9347
:100610009F93AF93BF938091370190913801A09140
:100620003901B0913A013091360123E0230F2D3783
:1006300058F50196A11DB11D209336018093370115
:1006400090933801A0933901B0933A0180913B0116
:1006500090913C01A0913D01B0913E010196A11DF8
:10066000B11D80933B0190933C01A0933D01B09359
:100670003E01BF91AF919F918F913F912F910F902C
:100680000FBE0F901F90189526E8230F0296A11D0C
:10069000B11DD2CF789484B5826084BD84B5816069
:1006A00084BD85B5826085BD85B5816085BD80913D
:1006B0006E00816080936E001092810080918100B5
:1006C00082608093810080918100816080938100AD
:1006D000809180008160809380008091B10084606F
:1006E0008093B1008091B00081608093B0008091D0
:1006F0007A00846080937A0080917A00826080938F
:100700007A0080917A00816080937A0080917A00EB
:10071000806880937A001092C100E0915701F091B7
:10072000580182E08083E0915301F09154011082DE
:10073000E0915501F09156018FEC808310925F019A
:10074000E0915B01F0915C0186E08083E0915901CA
:10075000F0915A01808180618083E0915901F0918C
:100760005A01808188608083E0915901F0915A019B
:10077000808180688083E0915901F0915A018081E5
:100780008F7D8083E6EAF0E02491E2E9F0E0849155
:10079000882399F090E0880F991FFC01EE58FF4FD5
:1007A000A591B491FC01E859FF4F859194918FB7C1
:1007B000F894EC91E22BEC938FBF42EA242E40E0B8
:1007C000342EF1012491EEE8F0E084918823C9F001
:1007D00090E0880F991FFC01EE58FF4FA591B4914E
:1007E000FC01E859FF4F459154919FB7F8943C9113
:1007F000822F809583238C93FA018081282B20837C
:100800009FBF00E010E00E944B024B015C01C12C35
:1008100094E0D92EF12CE12C0E944B026819790941
:100820008A099B09683E734081059105E0F420E444
:1008300020937C0080917A00806480937A0080917C
:100840007A0086FDFCCF909178008091790089270D
:1008500098278927E816F9060CF47C018C159D056C
:10086000DCF66C01D9CFB7016C197D09072E000C9D
:10087000880B990B0E94D80620E030E040EA50E453
:100880000E948D0720E030E040E85AE30E948D0787
:1008900020E030E040E05FE30E948D0724EF3DEF71
:1008A00044E35FE30E948D0720E030E04AE754E430
:1008B0000E948D0720E030E044E852E40E943506B3
:1008C0006B017C014B015C01C0924301D092440159
:1008D000E0924501F0924601AC019B010E94FA07AB
:1008E000882309F442C082E191E00E9457028EE120
:1008F00091E00E94570288E291E00E945702C09066
:100900003F01D0904001E0904101F0904201C114BC
:10091000D104E104F10409F0BCC00E944B026093D1
:100920003F01709340018093410190934201D0E0D8
:10093000C0E0E6EBF0E08491F101F490EEE8F0E045
:10094000E490E110E3C060E08CE00E94C2010E94EC
:1009500015020115110509F456CF0E94F6008823EF
:1009600009F451CF0E9400004ECF26013701E894D0
:1009700077F82FEF3FEF4FE75FE7C301B2010E9427
:10098000FA0781110DC02FEF3FEF4FE75FE7C3017B
:10099000B2010E94300618161CF486E191E0A5CF42
:1009A0002FEF3FEF4FE75FE4C701B6010E948807D2
:1009B00018161CF48AE191E098CF2FEF3FEF4FE734
:1009C0005FECC701B6010E94300687FDF3CF20E03F
:1009D00030E0A901C701B6010E94300687FF0BC0B5
:1009E0006DE287E491E00E942C0146015701B7FABD
:1009F000B094B7F8B0942AE037ED43EA5BE3C50161
:100A0000B4010E94C4054B015C010E94A7066B0162
:100A10007C010E94D6069B01AC01C501B4010E9475
:100A2000C3054B015C014AE0C701B6010E946402A4
:100A30006EE287E491E00E942C0120E030E040E289
:100A400051E4C501B4010E948D074B015C010E9475
:100A5000A7066B01F12CE12C4AE0C701B6010E9408
:100A60006402C701B6010E94D6069B01AC01C50114
:100A7000B4010E94C30520E030E040E251E40E944E
:100A80008D070E94A70690E080E04AE00E94640281
:100A90002ECF8090430190904401A0904501B090EA
:100AA00046010E944B026C197D098E099F09603135
:100AB000774281059105A8F42CEE31E548E35EE329
:100AC000C501B4010E94C3052DEC3CEC4CEC5DE388
:100AD0000E94880718160CF420CF209709F429CF1C
:100AE00008C010923F0110924001109241011092F3
:100AF00042018BE291E00E94570261E08CE00E948B
:100B0000C2010E941502C1E0D0E013CF81110E9402
:100B10009901EE2DF0E0EE0FFF1FE458FF4FA59175
:100B2000B4918C91F82209F40ECF13CFE7E4F1E0F1
:100B30001382128288EE93E0A0E0B0E08483958374
:100B4000A683B78384E091E09183808385EC90E075
:100B50009587848784EC90E09787868780EC90E087
:100B6000918B808B81EC90E0938B828B82EC90E078
:100B7000958B848B86EC90E0978B868B118E128EF2
:100B8000138E148E08955058BB27AA270E94DB05A8
:100B90000C944E070E94400738F00E94470720F04F
:100BA00039F49F3F19F426F40C943D070EF4E095B8
:100BB000E7FB0C943707E92F0E945F0758F3BA1739
:100BC000620773078407950720F079F4A6F50C9463
:100BD00081070EF4E0950B2EBA2FA02D0B01B90161
:100BE00090010C01CA01A0011124FF27591B99F0A3
:100BF000593F50F4503E68F11A16F040A22F232FAF
:100C0000342F4427585FF3CF469537952795A795FE
:100C1000F0405395C9F77EF41F16BA0B620B730BA5
:100C2000840BBAF09150A1F0FF0FBB1F661F771F16
:100C3000881FC2F70EC0BA0F621F731F841F48F4CB
:100C4000879577956795B795F7959E3F08F0B0CF54
:100C50009395880F08F09927EE0F9795879508953B
:100C60000E94130708F481E008950E9449060C943D
:100C70004E070E94470758F00E94400740F029F4B1
:100C80005F3F29F00C94370751110C9482070C94A4
:100C90003D070E945F0768F39923B1F3552391F351
:100CA000951B550BBB27AA2762177307840738F0DB
:100CB0009F5F5F4F220F331F441FAA1FA9F335D038
:100CC0000E2E3AF0E0E832D091505040E695001CEC
:100CD000CAF72BD0FE2F29D0660F771F881FBB1FA6
:100CE000261737074807AB07B0E809F0BB0B802D84
:100CF000BF01FF2793585F4F3AF09E3F510578F0B0
:100D00000C9437070C9482075F3FE4F3983ED4F3CA
:100D1000869577956795B795F7959F5FC9F7880F83
:100D2000911D9695879597F90895E1E0660F771FD5
:100D3000881FBB1F621773078407BA0720F0621B66
:100D4000730B840BBA0BEE1F88F7E09508950E9491
:100D5000670788F09F5798F0B92F9927B751B0F0DF
:100D6000E1F0660F771F881F991F1AF0BA95C9F72F
:100D700014C0B13091F00E948107B1E008950C9445
:100D80008107672F782F8827B85F39F0B93FCCF3F8
:100D9000869577956795B395D9F73EF490958095AC
:100DA000709561957F4F8F4F9F4F0895E89409C0CC
:100DB00097FB3EF490958095709561957F4F8F4F8E
:100DC0009F4F9923A9F0F92F96E9BB279395F695A4
:100DD000879577956795B795F111F8CFFAF4BB0F22
:100DE00011F460FF1BC06F5F7F4F8F4F9F4F16C086
:100DF000882311F096E911C0772321F09EE8872F10
:100E0000762F05C0662371F096E8862F70E060E0CB
:100E10002AF09A95660F771F881FDAF7880F969544
:100E2000879597F90895990F0008550FAA0BE0E8E8
:100E3000FEEF16161706E807F907C0F0121613069C
:100E4000E407F50798F0621B730B840B950B39F4DC
:100E50000A2661F0232B242B252B21F408950A2642
:100E600009F4A140A6958FEF811D811D089597F982
:100E70009F6780E870E060E008959FEF80EC089540
:100E800000240A9416161706180609060895002469
:100E90000A9412161306140605060895092E0394E3
:100EA000000C11F4882352F0BB0F40F4BF2B11F457
:100EB00060FF04C06F5F7F4F8F4F9F4F089557FDB6
:100EC0009058440F551F59F05F3F71F04795880FB8
:100ED00097FB991F61F09F3F79F08795089512164F
:100EE00013061406551FF2CF4695F1DF08C01616FB
:100EF00017061806991FF1CF8695710561050894AC
:100F00000895E894BB2766277727CB0197F90895C2
:100F10000E94130708F48FEF08950E94A0070C9415
:100F20004E070E94400738F00E94470720F09523A3
:100F300011F00C9437070C943D0711240C94820790
:100F40000E945F0770F3959FC1F3950F50E0551F06
:100F5000629FF001729FBB27F00DB11D639FAA270E
:100F6000F00DB11DAA1F649F6627B00DA11D661F5D
:100F7000829F2227B00DA11D621F739FB00DA11D7E
:100F8000621F839FA00D611D221F749F3327A00D38
:100F9000611D231F849F600D211D822F762F6A2FD4
:100FA00011249F5750409AF0F1F088234AF0EE0F39
:100FB000FF1FBB1F661F771F881F91505040A9F766
:100FC0009E3F510580F00C9437070C9482075F3FD9
:100FD000E4F3983ED4F3869577956795B795F795A2
:100FE000E7959F5FC1F7FE2B880F911D969587951A
:100FF00097F908950E941307880B990B0895A1E2B1
:101000001A2EAA1BBB1BFD010DC0AA1FBB1FEE1F82
:10101000FF1FA217B307E407F50720F0A21BB30BCD
:10102000E40BF50B661F771F881F991F1A9469F749
:1010300060957095809590959B01AC01BD01CF01A5
:101040000895EE0FFF1F0590F491E02D0994F89498
:02105000FFCFD0
:10105200000000002C018C00B9007901EA00C800F0
:10106200DC006E616E00696E66006F76660020417C
:101072006D707320524D53000D0A0072656C6179D8
:06108200206F66660A0003
:00000001FF
